:100000006CC010C285C084C083C082C081C080C063
:100010007FC07EC07DC07CC07BC07AC079C0090231
:100020002200010100A019090400000103000000E2
:10003000092101010001221600070581030800645F
:100040001201100100000008C016DF0500010102C6
:10005000030132037400690063006B0065006C00EB
:1000600074006F006E00400067006D006100690061
:100070006C002E0063006F006D003A00300030000D
:10008000300035001403540069006E0079004C0004
:100090006900670068007400280374006900630049
:1000A0006B0065006C0074006F006E00400067001C
:1000B0006D00610069006C002E0063006F006D0030
:1000C000040309040600FF0901A101150026FF0031
:1000D000750895010900B20201C011241FBECFE5C9
:1000E000D2E0DEBFCDBF10E0A0E6B0E0ECE8F7E084
:1000F00002C005900D92A236B107D9F720E0A2E622
:10010000B0E001C01D92AA39B207E1F722D33CC387
:1001100077CFCF93C62F20916D0024FF07C0309179
:100120006E0028E8232720936E0003C02AE5209361
:100130006D002C2FFC01AFE6B0E081918D93215032
:100140001216DCF36C2F8FE690E068D1CC5FC09381
:100150006D00CF910895CF93DF9360917F0063503E
:1001600067FDCDC080917C00CCE0D0E0C81BD109F8
:10017000CD57DF4F80917B008D3209F0AFC06830E2
:1001800009F0BBC083EC809362008AE58093610034
:1001900010927A008881807631F0CE01C4D28F3FF0
:1001A00009F48BC091C09A8110926B0089818111F2
:1001B00006C010926C002BE630E082E079C08530FA
:1001C00019F49093800071C0863009F058C08B817B
:1001D000813041F480E490E090937E0080937D0034
:1001E00082E149C0823041F48EE190E090937E003C
:1001F00080937D0082E23FC0833041F5911108C0B9
:1002000080EC90E090937E0080937D0084E033C08A
:10021000913041F488E990E090937E0080937D00D6
:1002200088E229C0923041F484E890E090937E0007
:1002300080937D0084E11FC09330E1F482E590E07B
:1002400090937E0080937D0082E315C0813241F45B
:1002500080E390E090937E0080937D0089E00BC066
:10026000823241F484EC90E090937E0080937D0094
:1002700086E101C080E090E490937A0025C0883048
:1002800069F0893019F4909382000FC08A3049F0E8
:100290008B3059F48BE480936E0007C022E830E085
:1002A00002C02BE630E081E003C02BE630E080E0C6
:1002B00030937E0020937D0007C0988197FD8E814A
:1002C00090E890937A0007C09F81911104C09E81AD
:1002D000981708F4892F809360000FC080917A00EE
:1002E00087FF0BC0CE0118D28F3F21F48EE180939F
:1002F000610003C081111092600010927F00809114
:10030000610084FF55C0809160008F3F09F450C0A8
:10031000C82F893008F0C8E08C1B80936000909152
:10032000620088E8892780936200CC2309F44BC0DF
:1003300020917A0027FF08C06C2F83E690E0E6D179
:10034000C82F893078F523C080917D0090917E0080
:1003500026FF0AC0A3E6B0E0FC012C2F34913D93A8
:1003600031962150D9F708C0DC01E3E6F0E02C2FEC
:100370003D9131932150E1F72FEF2C0F30E02F5FAB
:100380003F4F820F931F90937E0080937D006C2FD0
:1003900083E690E043D0CC5FCC3041F08FEF809388
:1003A000600004C08FEF80936000CEE1C0936100D5
:1003B00084E196B3957069F48150D9F7109280006A
:1003C0001092790006C060E083E690E027D0C4E098
:1003D000E5CFDF91CF91089585B7826085BF8BB758
:1003E00080648BBFEDE6F0E08BE481838AE5808357
:1003F0000895A82FB92F80E090E041E050EA609581
:1004000030E009C02D9182279795879510F08427B9
:100410009527305EC8F36F5FA8F30895EADF8D93E8
:100420009D930895CF93CFB7CF93C395B09BE9F732
:10043000B09B0BC0B09B09C0B09B07C0B09B05C070
:10044000B09B03C0B09B01C0D5C00F92DF93C09199
:100450007C00DD27CD57DF4F012EB09B03C0DF911D
:100460000F90E6CF2F930F931F934F932FEF4F6F64
:1004700006B300FB20F95F933F9350E03BE065C07B
:1004800016B30126502950FDC89556B3012700FB2D
:1004900025F92F7306B3B1F05027102710FB26F96A
:1004A00006B22230F0F000C016B3012700FB27F996
:1004B0000126502906B22430E8F54F77206816B39C
:1004C0000000F6CF50274F7D206206B2102F0000AB
:1004D00000C006B300265029102710FB26F906B2EB
:1004E000E2CF4F7B06B3206400C0DACF012650294B
:1004F000157006B269F14E7F2160012F16B328C036
:10050000002650294D7F06B22260102F29C00126F7
:1005100050294B7F06B22460012F2DC016B301264F
:100520005029477F2860000006B22EC04F7E06B3D8
:10053000206130C0422706B3499300265029102776
:1005400006B24FEF10FB20F9297F16B379F2157030
:1005500059F10126502906B2012700FB21F9237F1A
:1005600006B371F2002650293150D0F006B21027A0
:1005700010FB22F9277E16B351F2012650290127DC
:1005800000FB06B223F92F7C49F2000006B31027C6
:1005900010FB24F90026502906B22F7939F270CFCA
:1005A00010E41ABF002719C03B503195C31BD0403F
:1005B00010E41ABF0881033C09F10B34F9F02091D3
:1005C00079001981110F1213EDCF4A81441F0936AA
:1005D00051F10D3211F0013E29F7009381003F9156
:1005E0005F914F911F910F912F91DF910F90CAB79B
:1005F000C6FD1BCFCF91CFBFCF9118952091810021
:10060000222369F310917F00112379F534307AF1B8
:1006100030937F0020937B0010917C003BE0311BE6
:1006200030937C0024C000917F000130F4F40AE58F
:100630004F7049F43091610034FD1AC0009361009D
:10064000C2E6D0E019C030916D0034FD11C00093B6
:100650006D00CEE6D0E010C0052710E000C021C03C
:10066000052710E0C89508BB14C03AE501C032ED7B
:10067000032EC0E0D0E032E017B31560C09A08B393
:1006800017BB55E020E84FEF20FF052708BB279553
:1006900017951C3F28F700004552B0F720FF0527AB
:1006A000279508BB17951C3FB8F629913A9561F735
:1006B0000A7F10918000110F08BBC250D04011F08A
:1006C0001093790010E41ABF016017B31A7F402F0E
:1006D0004A7F54E05A95F1F708BB17BB48BB7FCF60
:1006E0008091990080FF02C0C19801C0C19A809199
:1006F000990081FF02C0C39801C0C39A80919900FC
:1007000082FF02C0C4980895C49A08952091990068
:10071000FC01208381E00895FC0180818093990091
:10072000DFDF81E00895FC0190819076903241F402
:100730009181977F81E0913009F080E08195089563
:1007400080E0089587B38A6187BBC19AC39AC49A2F
:100750000895109299000FB6F894A89581B5886114
:1007600081BD11BC0FBEEEDF37DEB89A80E081504C
:1007700039F0ECE1F0E13197F1F700C00000F7CF7C
:0C078000B8987894E8DCFECFF894FFCF26
:02078C00FF5A12
:00000001FF
