:100000000EC01DC01CC01BC01AC01AC018C017C02B
:1000100016C015C014C013C012C011C010C01124E6
:100020001FBECFE5D2E0DEBFCDBF20E0A0E6B0E04E
:1000300001C01D92A136B207E1F725D02AC0E0CF5A
:100040001F920F920FB60F9211248F939F9398B324
:1000500088E0892788BB809160008F5F8093600073
:100060009F918F910F900FBE0F901F90189588B79A
:100070008D7F88BF89B7826089BF83B7826083BF65
:100080000895BB9A089510926000FBDFF0DF78942A
:06009000FFCFF894FFCF42
:00000001FF
