:100000006DC1CAC490C18FC18EC18DC18CC18BC15D
:100010008AC189C188C187C186C185C184C10403E1
:10002000090428037400690063006B0065006C001C
:1000300074006F006E00400067006D006100690091
:100040006C002E0063006F006D000C034100560031
:1000500052005300480032037400690063006B00D3
:1000600065006C0074006F006E00400067006D005A
:10007000610069006C002E0063006F006D003A00A3
:100080003000300030003400120110010000000880
:10009000C016DF050001010203010902220001016F
:1000A00000A019090400000103000000092101015A
:1000B000000122160007058103080064380037009C
:1000C00000280238003700012402380037000220DF
:1000D0000238003700031C023800370004180238C9
:1000E00000370005140257726F7465206C6F6769E2
:1000F0006320257320746F2070696E2025730D0AAC
:10010000004C6F636B20426974733A20307825731A
:100110000D0A00457874656E6465642046757365E4
:100120003A20307825730D0A0048696768204675C3
:1001300073653A20307825730D0A004C6F7765722D
:1001400020467573653A20307825730D0A00507289
:100150006F626C656D2066696E64696E6720746895
:1001600061742070696E2E0D0A004350552046724E
:1001700065713A20256C750D0A00456C61707365D8
:10018000642074696D653A207E2025642073656360
:100190006F6E64730D0A0053746172746564207429
:1001A000696D65722E0D0A0053756363657373661E
:1001B000756C6C79206368616E6765642043505587
:1001C000207072657363616C65722E0D0A00536551
:1001D0007420257320666F722025730D0A00506FFE
:1001E000776572646F776E206F6620257320636F6A
:1001F0006D706C6574652E0D0A00506F77657275B1
:1002000070206F6620257320636F6D706C65746558
:100210002E0D0A0050423500504234005042330047
:1002200050423200504231005042300053657276E5
:100230006963653A20257320656E61626C65642E82
:100240000D0A00706F776572646F776E00706F775C
:10025000657275700074696D657200666370750013
:100260007365740077726974650072656164007308
:100270006372697074007661727300656E61003C30
:100280003C4552524F523E3E2025733A20756E6BCC
:100290006E6F776E20636F6D6D616E642E0D0A0058
:1002A00050696E3A202573206973204C4F570D0A10
:1002B0000050696E3A2025732069732048494748E9
:1002C0000D0A000600FF0901A101150026FF0075B7
:1002D0000895800900B20201C000220B11241FBE44
:1002E000CFE5D2E0DEBFCDBF10E0A0E6B0E0E0E9B0
:1002F000FDE102C005900D92A83EB107D9F721E0BB
:10030000A8EEB0E001C01D92A539B207E1F711E0F7
:10031000CEE6D1E003C02197FE01ACD9CD36D1079E
:10032000D1F733D933CD6CCECF93DF93CDB7DEB7D2
:100330008BE480936A010000DF91CF910895CF9301
:10034000DF93CDB7DEB70000DF91CF910895CF9353
:10035000DF93CDB7DEB728970FB6F894DEBF0FBE98
:10036000CDBF9D838C836E8358874F838F81988503
:10037000FC018081882F90E080719927892B61F0A2
:100380008F819885FC01918188E8292F28278F810A
:100390009885FC01218305C08F8198852AE5FC01A1
:1003A00020838F819885019601969A8389838E8117
:1003B0008B8389819A819C012F5F3F4F3A832983E8
:1003C0002C813D81A9014F5F5F4F5D834C83F90113
:1003D0002081FC0120838B8181508B838B811816B7
:1003E00044F38F81988502966E81D2D28E8124E06B
:1003F000280F8F819885FC012083000028960FB676
:10040000F894DEBF0FBECDBFDF91CF910895CF939B
:10041000DF9300D01F92CDB7DEB79A8389836B83B9
:1004200089819A8149E651E06B8191DF00000F904C
:100430000F900F90DF91CF910895CF93DF9300D06D
:1004400000D000D0CDB7DEB79E838D83198280E4C3
:100450008A838D819E81FC0183818B838B81813096
:1004600049F482E1898388E890E090937A0180934F
:1004700079015BC08B81823049F482E289838AE909
:1004800090E090937A01809379014FC08B81833003
:10049000A9F58D819E81FC0182818C838C818823CA
:1004A00049F484E089838EE190E090937A0180930F
:1004B00079013BC08C81813049F488E2898382E2F2
:1004C00090E090937A01809379012FC08C818230E3
:1004D00049F48CE089838AE490E090937A018093D8
:1004E000790123C08C81833001F582E3898386E51D
:1004F00090E090937A018093790117C08B818132CB
:1005000049F489E089838CEA90E090937A018093A2
:1005100079010BC08B81823241F486E1898383ECBF
:1005200092E090937A01809379018A818093760199
:10053000898126960FB6F894DEBF0FBECDBFDF913E
:10054000CF910895CF93DF93CDB7DEB728970FB63D
:10055000F894DEBF0FBECDBF98878F83198287E6E0
:1005600091E09B838A838F819885FC0182818C83B3
:100570008A819B81FC0110828F819885FC01818199
:100580008D838D81882371F48F819885FC01808112
:100590008F718E838A819B810196FC01108282E09B
:1005A00089832CC08D81853021F48C8180937C01DE
:1005B00025C08D81863029F48F8198853EDF89831F
:1005C00023C08D81883039F48EE791E09B838A8344
:1005D00081E0898313C08D81893029F48C818093D7
:1005E0007E01ADDE0BC08D818A3019F481E08983F4
:1005F00005C08D818B3011F497DEA1DE8A819B814D
:1006000090937A0180937901898128960FB6F894A6
:10061000DEBF0FBECDBFDF91CF910895CF93DF93A3
:10062000CDB7DEB728970FB6F894DEBF0FBECDBFAB
:100630009F838E8368878E819F819B838A8380912D
:1006400077018D3209F046C08885883009F058C09E
:1006500083EC80935E018AE58093600010927601BE
:100660008A819B81FC01808180768C838C818823A8
:1006700029F08E819F8165D7898304C08A819B81FF
:1006800061DF898389818F3F79F48A819B81FC01B5
:10069000808188232CF48A819B81FC018681898357
:1006A00080E88093760112C08A819B81FC0187815A
:1006B000882361F48A819B81FC0196818981981746
:1006C00028F48A819B81FC018681898389818093BA
:1006D000610017C08091760188239CF48E819F81F0
:1006E0006885F5D68D838D818F3F21F48EE18093CF
:1006F000600007C08D81882321F01092610001C045
:10070000000028960FB6F894DEBF0FBECDBFDF9174
:10071000CF910895CF93DF93CDB7DEB72A970FB669
:10072000F894DEBF0FBECDBF998788876A878A8518
:10073000882309F459C080917601882334F4888590
:1007400099856A85A1D68A874FC08A8589838091D9
:10075000790190917A019B838A8380917601882F19
:1007600090E080749927892B09F18A819B819D8370
:100770008C838C819D81FC0184918E838E818F83FB
:10078000888599859C012F5F3F4F398728872F8166
:10079000FC0120838A819B8101969B838A838981C6
:1007A000815089838981882301F718C088859985BC
:1007B0009C012F5F3F4F398728872A813B81F901B0
:1007C0002081FC0120838A819B8101969B838A83FF
:1007D0008981815089838981882341F78A819B811E
:1007E00090937A01809379018A852A960FB6F894BE
:1007F000DEBF0FBECDBFDF91CF910895CF93DF93C2
:1008000000D0CDB7DEB780916100898389818930BE
:1008100010F088E08983909161008981292F281B3D
:10082000822F8093610090915E0188E889278093F0
:100830005E018FE591E069816DDF8A838A8189306D
:1008400070F48FE591E06A81A3D08A818C5F8A83FE
:100850008A818C3048F48FEF8093610005C08EE16F
:100860008A838FEF809361008A818093600000000B
:100870000F900F90DF91CF910895CF93DF931F9248
:10088000CDB7DEB7898300000F90DF91CF91089537
:10089000CF93DF9300D01F92CDB7DEB780917B015D
:1008A00083508A838A8188238CF04A8180917801E1
:1008B000882F90E02CE030E0B901681B790BCB0168
:1008C00081589E4F642FAADE10927B0180916000B8
:1008D000882F90E080719927892B29F08091610001
:1008E0008F3F09F08BDF84E189830CC086E390E0C1
:1008F000FC01808185708B838B81882361F48981E1
:10090000815089838981882389F710927C01109214
:10091000750115DD01C000008981AFDF00000F9077
:100920000F900F90DF91CF910895CF93DF93CDB7C4
:10093000DEB785E590E025E530E0F9012081226011
:10094000FC0120838BE590E02BE530E0F90120816C
:100950002064FC012083E8DC8AE5809369010000C3
:10096000DF91CF910895A82FB92F80E090E041E06A
:1009700050EA609530E009C02D91822797958795C0
:1009800010F084279527305EC8F36F5FA8F30895B1
:10099000EADF8D939D930895CF93CFB7CF93C395FF
:1009A000B09BE9F7B09B0BC0B09B09C0B09B07C0E0
:1009B000B09B05C0B09B03C0B09B01C0D5C00F92D7
:1009C000DF93C0917801DD27C158DE4F012EB09B27
:1009D00003C0DF910F90E6CF2F930F931F934F9398
:1009E0002FEF4F6F06B300FB20F95F933F9350E06A
:1009F0003BE065C016B30126502950FDC89556B39B
:100A0000012700FB25F92F7306B3B1F050271027FB
:100A100010FB26F906B22230F0F000C016B3012711
:100A200000FB27F90126502906B22430E8F54F775C
:100A3000206816B30000F6CF50274F7D206206B223
:100A4000102F000000C006B300265029102710FB0D
:100A500026F906B2E2CF4F7B06B3206400C0DACF9E
:100A600001265029157006B269F14E7F2160012FD1
:100A700016B328C0002650294D7F06B22260102FE1
:100A800029C0012650294B7F06B22460012F2DC0BA
:100A900016B301265029477F2860000006B22EC0F9
:100AA0004F7E06B3206130C0422706B3499300262B
:100AB0005029102706B24FEF10FB20F9297F16B3FB
:100AC00079F2157059F10126502906B2012700FB71
:100AD00021F9237F06B371F2002650293150D0F05E
:100AE00006B2102710FB22F9277E16B351F2012619
:100AF0005029012700FB06B223F92F7C49F20000A0
:100B000006B3102710FB24F90026502906B22F79CE
:100B100039F270CF10E41ABF002719C03B5031954D
:100B2000C31BD04010E41ABF0881033C09F10B3409
:100B3000F9F0209175011981110F1213EDCF4A813F
:100B4000441F093651F10D3211F0013E29F700938F
:100B50007D013F915F914F911F910F912F91DF91F7
:100B60000F90CAB7C6FD1BCFCF91CFBFCF911895BD
:100B700020917D01222369F310917B01112379F5E6
:100B800034307AF130937B01209377011091780112
:100B90003BE0311B3093780124C000917B01013090
:100BA000F4F40AE54F7049F43091600034FD1AC046
:100BB00000936000CEE5D1E019C03091690134FDA9
:100BC00011C000936901CAE6D1E010C0052710E00A
:100BD00000C021C0052710E0C89508BB14C03AE545
:100BE00001C032ED032EC0E0D0E032E017B3156053
:100BF000C09A08B317BB55E020E84FEF20FF052748
:100C000008BB279517951C3F28F700004552B0F701
:100C100020FF0527279508BB17951C3FB8F629919B
:100C20003A9561F70A7F10917C01110F08BBC25001
:100C3000D04011F01093750110E41ABF016017B392
:100C40001A7F402F4A7F54E05A95F1F708BB17BB33
:100C500048BB7FCF0F931F93CF93DF938C01C0E0EE
:100C6000D0E0CE0167E070E0F4D48F539F4FFC01D9
:100C700065917491C80104D5892B49F4CE0167E0D0
:100C800070E0E7D480549F4FFC01849105C0219609
:100C9000C731D10531F787E1DF91CF911F910F91D6
:100CA00008950F931F93CF93DF938C01C0E0D0E0A2
:100CB000CE0167E070E0CDD48F539F4FFC0165916A
:100CC0007491C801DDD4892B51F4CE0167E070E046
:100CD000C0D484549F4FFC018591949106C0219605
:100CE000C731D10529F787E190E0DF91CF911F91BE
:100CF0000F9108950F931F93CF93DF93EB0108811A
:100D0000198162E670E0C801E1D4892B19F480B53D
:100D10008E7F08C066E670E0C801D8D4892B19F42C
:100D200080B5807F80BD89818F9388818F938AEF82
:100D300091E09F938F938AEE90E09F938F9332D5AB
:100D40000F900F900F900F900F900F908AEE90E001
:100D5000DF91CF911F910F915AC40F931F93CF939F
:100D6000DF93EB010881198162E670E0C801AED41F
:100D7000892B19F480B5816008C066E670E0C8016F
:100D8000A5D4892B19F480B58F6080BD89818F939C
:100D900088818F938EED91E09F938F938AEE90E000
:100DA0009F938F93FFD40F900F900F900F900F9001
:100DB0000F908AEE90E0DF91CF911F910F9127C4A1
:100DC000EF92FF920F931F93CF93DF93EB016AE6AD
:100DD00070E0888199817AD4892B09F064C0EA8017
:100DE000FB8000E010E0C80167E070E032D48F5370
:100DF0009F4FFC0165917491C70142D4892B51F436
:100E0000C80167E070E025D482549F4FFC01059132
:100E1000149107C00F5F1F4F0731110521F707E13C
:100E200010E06EE670E08C819D8150D4892B61F4D6
:100E3000C70110DF21E030E001C0220F8A95EAF7F8
:100E4000F8018081282B0CC0C70104DF21E030E0CD
:100E500001C0220F8A95EAF72095F80180812823A6
:100E600020838D818F938C818F938B818F938A8147
:100E70008F938EEC91E09F938F938AEE90E09F93F7
:100E80008F9390D48DB79EB708960FB6F8949EBFF7
:100E90000FBE8DBF8AEE90E0DF91CF911F910F9131
:100EA000FF90EF90B4C3DF91CF911F910F91FF900E
:100EB000EF900895CF93DF93FB01C081D18165E767
:100EC00070E0CE0103D4892B11F490E03FC06CE7B1
:100ED00070E0CE01FBD3892B11F491E037C063E8B9
:100EE00070E0CE01F3D3892B11F492E02FC06AE8B1
:100EF00070E0CE01EBD3892B11F493E027C061E9B8
:100F000070E0CE01E3D3892B11F494E01FC069E9AE
:100F100070E0CE01DBD3892B11F495E017C061EAB4
:100F200070E0CE01D3D3892B11F496E00FC069EAAB
:100F300070E0CE01CBD3892B11F497E007C062EBB0
:100F400070E0CE01C3D3892B39F498E080E80FB666
:100F5000F89486BD96BD0FBE88EA91E0DF91CF91EF
:100F600039C30F931F93CF93DF93EC01FB010081F3
:100F700011816BEB70E0C801A9D3892B51F4188261
:100F80008CE989BD87E991E0DF91CF911F910F91A5
:100F900021C361EC70E0C80199D3892BB1F4898138
:100FA0001F928F938AE791E09F938F938AEE90E050
:100FB0009F938F93F7D38AEE90E029D319820F90F5
:100FC0000F900F900F900F900F90DF91CF911F9186
:100FD0000F9108951F928BEF8F9385EC8F9380E292
:100FE0008F938AE691E09F938F938AEE90E09F9390
:100FF0008F93D8D38DB79EB708960FB6F8949EBF3F
:101000000FBE8DBF8AEE90E002C3EF92FF920F9366
:101010001F93CF93DF9300D000D01F92CDB7DEB7E0
:101020007B01FB01008111816AE670E0C8014ED3AB
:10103000892B09F040C0F7018281938132DEFC01E7
:101040008081873121F48EE491E0C4D2A2C098B3AC
:1010500089139FC016B3F70182819381FBDD21E0E4
:1010600030E0A90102C0440F551F8A95E2F7CA017A
:10107000212F30E082239323F70133812281892BB2
:1010800029F03F932F9381EB92E004C03F932F937D
:1010900080EA92E09F938F938AEE90E09F938F93E4
:1010A00081D30F900F900F900F900F900F908AEEBA
:1010B00090E0ADD26EC066EC70E0C80107D3FC01D1
:1010C000892B81F499E090935700849140E150E09E
:1010D000BE016F5F7F4F90E038D39F938F938BE378
:1010E00091E047C06CEC70E0C801F0D2892B91F41C
:1010F000E3E0F0E089E080935700849140E150E024
:10110000BE016F5F7F4F90E020D39F938F9389E262
:1011100091E02FC062ED70E0C801D8D2892B91F424
:10112000E2E0F0E089E080935700849140E150E0F4
:10113000BE016F5F7F4F90E008D39F938F9383E151
:1011400091E017C06EED70E0C801C0D2892B09F59F
:10115000E1E0F0E089E080935700849140E150E0C5
:10116000BE016F5F7F4F90E0F0D29F938F9381E03D
:1011700091E09F938F938AEE90E09F938F9312D389
:101180008AEE90E044D20F900F900F900F900F9046
:101190000F900F900F900F900F900F90DF91CF91C5
:1011A0001F910F91FF90EF9008950F931F93CF938E
:1011B000DF93EB016AE670E08881998187D2892B01
:1011C00009F046C08A819B816CDD8C0168ED70E07E
:1011D0008C819D817BD22A813B81892B61F4C9015D
:1011E00039DD21E030E001C0220F8A95EAF7F801ED
:1011F0008081282B0CC0C9012DDD21E030E001C029
:10120000220F8A95EAF72095F80180812823208310
:101210008B818F938A818F938D818F938C818F9314
:1012200086EE90E09F938F938AEE90E09F938F934A
:10123000B9D28DB79EB708960FB6F8949EBF0FBE71
:101240008DBF8AEE90E0DF91CF911F910F91DFC1AA
:10125000DF91CF911F910F910895CF93DF93FB0101
:10126000C081D18166E772E0CE011DD2892B31F0B9
:101270006FE672E0CE0117D2892BB1F4DF93CF93E2
:101280008CE292E09F938F938AEE90E09F938F93EE
:1012900089D20F900F900F900F900F900F908AEEC1
:1012A00090E0DF91CF91B3C1DF93CF938FE792E0CE
:1012B0009F938F938AEE90E09F938F9373D20F90BA
:1012C0000F900F900F900F900F908FE792E0DF91AB
:1012D000CF9180C1EF92FF920F931F93CF93DF9333
:1012E0008C01EB017A016BE772E0CE01DCD1892B36
:1012F00021F4B701C801B1DF63C06AE672E0CE0134
:10130000D2D1892B21F4B701C8017FDE59C064E630
:1013100072E0CE01C8D1892B21F4B701C80145DFA5
:101320004FC060E672E0CE01BED1892B21F4B70137
:10133000C80146DD45C06BE572E0CE01B4D1892B12
:1013400019F4C80147DE3CC065E572E0CE01ABD1BF
:10135000892B21F4B701C80104DE32C06DED70E0C5
:10136000CE01B4D1892B21F4B701C801A3DD28C077
:101370006DE472E0CE0197D1892B21F4B701C80149
:10138000B9DC1EC063E472E0CE018DD1892B21F45B
:10139000B701C801E2DC14C0DF93CF938FE792E07E
:1013A0009F938F938AEE90E09F938F93FBD18AEE69
:1013B00090E02DD10F900F900F900F900F900F9005
:1013C00080E0DF91CF911F910F91FF90EF900895F2
:1013D000AF92BF92CF92DF92EF92FF920F931F9343
:1013E000CF93DF93CDB7DEB7AC970FB6F894DEBFDF
:1013F0000FBECDBF6C0180E2FB01DE0111960190B2
:101400000D928A95E1F763EE70E0CE01019654D11A
:10141000892B41F17E0181E2E80EF11C00E010E031
:10142000570163EE70E080E090E046D1009749F00C
:10143000F701819391937F010F5F1F4F05301105D5
:1014400081F7000F111FE1E0F0E0EC0FFD1FE00F4E
:10145000F11F11A210A2A501BE016F5F7F4FC6014F
:1014600039DF01C081E0AC960FB6F894DEBF0FBE45
:10147000CDBFDF91CF911F910F91FF90EF90DF9043
:10148000CF90BF90AF900895209118012223D9F0FA
:10149000621708F4262F382FFC018E2F831B82172A
:1014A000A0F4A0911701B0E0A25CBE4F8C91819393
:1014B000809117018F5F80931701809118018150EF
:1014C00080931801EACF80E00895822F089520913B
:1014D0001401309115012132310578F52091120166
:1014E00030911301462F50E02417350708F4622F7E
:1014F000382FDC0180911201909113012A2F231BB8
:10150000261788F4E091160121E02E0F2093160192
:101510002D91F0E0E25EFE4F20830197909313013E
:1015200080931201E7CF892B51F481E08093190158
:10153000109217011092160108958FEF089580E020
:101540000895CF93DF93FC01208120762032C9F4E7
:1015500021812130A1F02930A1F4EC0140E250E0DA
:1015600060E270E08EE191E0AAD08E819F8190933D
:1015700015018093140190931301809312018FEF52
:1015800001C080E0DF91CF9108950FB6F894A8953F
:1015900081B5886181BD11BC0FBE10921601C5D9FD
:1015A000B89A80E0815039F0ECE1F0E13197F1F741
:1015B00000C00000F7CFB89878946AD980911901DB
:1015C0008823D9F36EE171E08AE191E001DF1092A6
:1015D0001901F3CFCF93DF93EC01FC016591749176
:1015E00040E250E08EE391E07AD010925D01FE017E
:1015F00001900020E9F73197EC1BFD0BE132F1057A
:1016000008F0E0E2E0931801DF91CF910895CF93C5
:10161000DF93EC0140E250E0BC018EE391E05FD04B
:1016200010925D01FE0101900020E9F73197EC1B5B
:10163000FD0BE132F10508F0E0E2E0931801DF91E3
:10164000CF910895EAE1F1E01182108212821382B3
:1016500008950024552704C0080E591F880F991FAC
:10166000009729F076956795B8F37105B9F7802D45
:10167000952F0895EE0FFF1F0590F491E02D09942A
:10168000FB01DC018D9181341CF08B350CF4805E04
:10169000659161341CF06B350CF4605E861B611142
:1016A00089F3990B0895FB01DC018D910590801958
:1016B0000110D9F3990B089548EE50E01FC0DC01EA
:1016C00001C06D9341505040E0F70895FB01DC01EB
:1016D0008D91019080190110D9F3990B0895FB01A8
:1016E000DC014150504048F001900D920020C9F7B4
:1016F00001C01D9241505040E0F70895FA01A191B8
:10170000B081009719F41097E1F0CD01DC01CD0113
:101710000D90002011F4C00113C0FB012191222380
:1017200019F02015D9F7F3CFFB012191201519F4F9
:101730001E92119606C02223C1F70D900020A1F73A
:10174000D001FA01A193B08308954532510518F4F0
:10175000423008F004C0FB011082CB010895BB2782
:101760004A3031F4992322F4BDE2909581959F4F40
:1017700001C0BB27FB015527AA27880F991FAA1F65
:10178000A41710F0A41B83955051B9F7A05DAA339C
:1017900008F0A95DA193009779F7B111B193119267
:1017A000CB0108C2AEE0B0E0E7EDFBE0C6C20D89B8
:1017B0001E898EE08C831A8309838FEF9FE79E83B7
:1017C0008D83AE01475E5F4F6F89788DCE010196A4
:1017D00008D0EF81F885E00FF11F10822E96E4E02B
:1017E000C8C2ABE0B0E0E6EFFBE099C26C017B0160
:1017F0008A01FC0117821682838181FFC0C1CE015C
:1018000001963C01F6019381F70193FD859193FFC9
:1018100081917F01882309F4AEC1853239F493FDAB
:10182000859193FF81917F01853221F4B60190E08B
:10183000D1D1E8CF912C212C312CFFE1F315E0F030
:101840008B3279F038F4803279F08332A9F4232D89
:10185000206110C08D3259F0803371F4232D216046
:1018600009C0832D8260382EE32DE46022C0F32D61
:10187000F86025C0322E27C037FC2DC020ED280F80
:101880002A3088F436FE06C0892D6AE03FD2922EB7
:10189000980E19C0822D6AE039D2222E280E832D8F
:1018A0008062382E10C08E3231F436FC64C1E32DD4
:1018B000E0643E2E08C08C3621F4F32DF0683F2EF4
:1018C00002C0883641F4F70193FD859193FF819121
:1018D0007F018111B2CF982F9F7D9554933028F4CA
:1018E0000C5F1F4F2FE329830DC0833631F0833700
:1018F00071F0833509F055C020C0F80180818983DB
:101900000E5F1F4F88248394912C530112C028012D
:10191000F2E04F0E511CF801A080B18036FE03C0EA
:10192000692D70E002C06FEF7FEFC50138D14C0127
:101930008201F32DFF773F2E15C0280122E0420ED1
:10194000511CF801A080B18036FE03C0692D70E003
:1019500002C06FEF7FEFC50117D14C01F32DF06886
:101960003F2E820133FC19C0822D90E08816990623
:10197000A0F4B60180E290E02DD12A94F5CFF501D4
:1019800037FC859137FE81915F01B60190E022D14D
:1019900021102A9421E0821A91088114910479F788
:1019A000E1C0843611F0893639F5F80137FE07C0F9
:1019B00060817181828193810C5F1F4F08C06081BB
:1019C0007181072E000C880B990B0E5F1F4FF32DB2
:1019D000FF763F2E97FF09C0909580957095619591
:1019E0007F4F8F4F9F4FF0683F2E2AE030E0A301DA
:1019F0002DD1882E861844C0853731F4232D2F7EB3
:101A0000B22E2AE030E025C0932D997FB92E8F3673
:101A1000C1F018F4883579F0AEC0803719F08837F6
:101A200021F0A9C0E92FE061BE2EB4FE0DC0FB2D50
:101A3000F460BF2E09C034FE0AC0292F2660B22EE2
:101A400006C028E030E005C020E130E002C020E11F
:101A500032E0F801B7FE07C0608171818281938115
:101A60000C5F1F4F06C06081718180E090E00E5FC7
:101A70001F4FA301EBD0882E8618FB2DFF773F2E3A
:101A800036FE0DC0232D2E7FA22E891458F434FE6D
:101A90000BC032FC09C0832D8E7EA82E05C0B82C49
:101AA000A32C03C0B82C01C0B92CA4FE0FC0FE01AA
:101AB000E80DF11D8081803321F49A2D997EA92EA5
:101AC00009C0A2FE06C0B394B39404C08A2D8678E0
:101AD00009F0B394A3FC10C0A0FE06C0B21480F4B9
:101AE000280C922C9B180DC0B21458F4B60180E259
:101AF00090E070D0B394F8CFB21418F42B1802C051
:101B0000982C212CA4FE0FC0B60180E390E062D097
:101B1000A2FE16C0A1FC03C088E790E002C088E5E1
:101B200090E0B6010CC08A2D867851F0A1FE02C06B
:101B30008BE201C080E2A7FC8DE2B60190E04AD0C2
:101B4000891430F4B60180E390E044D09A94F8CF41
:101B50008A94F301E80DF11D8081B60190E03AD03E
:101B60008110F6CF222009F44DCEB60180E290E03C
:101B700031D02A94F7CFF6018681978102C08FEF8A
:101B80009FEF2B96E2E1E7C0FC01059061507040A9
:101B90000110D8F7809590958E0F9F1F0895FC0136
:101BA0006150704001900110D8F7809590958E0F8C
:101BB0009F1F0895DC01FC01672F71917723E1F7E6
:101BC000329704C07C916D9370836291AE17BF070A
:101BD000C8F308950F931F93CF93DF93FB012381E5
:101BE00021FD03C08FEF9FEF2CC022FF16C046815E
:101BF0005781248135814217530744F4A081B18174
:101C00009D012F5F3F4F318320838C932681378145
:101C10002F5F3F4F3783268314C08B01EC01FB01FC
:101C20000084F185E02D0995892BE1F6D8011696FF
:101C30008D919C911797019617969C938E9316976A
:101C4000CE01DF91CF911F910F910895FA01AA273C
:101C5000283061F1203191F1E8946F936E7F6E5FCF
:101C60007F4F8F4F9F4FAF4FB1E040D0B4E03ED099
:101C7000670F781F891F9A1FA11D680F791F8A1F80
:101C8000911DA11D6A0F711D811D911DA11D22D0E5
:101C900009F468943F91062E000C3019000C000CDA
:101CA0003019305D3193CEF6CF010895462F47703D
:101CB000405D4193B3E00FD0C9F7F6CF462F4F7088
:101CC000405D4A3318F0495D31FD4052419302D0E6
:101CD000A9F7EACFB4E0A69597958795779567958C
:101CE000BA95C9F700976105710508959B01AC018C
:101CF0000A2E06945795479537952795BA95C9F7B3
:101D0000620F731F841F951FA01D0895002480FD7E
:101D1000060E660F11F08695D1F7802D08952F924B
:101D20003F924F925F926F927F928F929F92AF926B
:101D3000BF92CF92DF92EF92FF920F931F93CF93B8
:101D4000DF93CDB7DEB7CA1BDB0B0FB6F894DEBF4F
:101D50000FBECDBF09942A88398848885F846E8475
:101D60007D848C849B84AA84B984C884DF80EE80BF
:101D7000FD800C811B81AA81B981CE0FD11D0FB6C8
:101D8000F894DEBF0FBECDBFED010895F894FFCFEC
:101D90005AFF61646300616C6C0070696E006F755E
:101DA0007470757400636B6469763100636B646989
:101DB000763200636B6469763400636B64697638ED
:101DC00000636B646976313600636B646976333225
:101DD00000636B646976363400636B646976313214
:101DE0003800636B646976323536007374617274DF
:101DF0000073746F70006C66757365006866757348
:101E000065006566757365006869676800636C6F77
:081E1000636B00200D090A00BC
:00000001FF
