:1000000070C0E3C189C088C087C05EC385C084C09A
:1000100083C082C081C080C07FC07EC07DC0090215
:100020002200010100A019090400000103000000E2
:100030000921010100012223000705810308006452
:100040001201100100000008C016DA2700010102A9
:10005000030132037400690063006B0065006C00EB
:1000600074006F006E00400067006D006100690061
:100070006C002E0063006F006D003A00300030000D
:10008000300032000E0341006E0079004B00650025
:10009000790028037400690063006B0065006C0040
:1000A00074006F006E00400067006D006100690021
:1000B0006C002E0063006F006D000403090405014D
:1000C0000906A101050719E029E7150025017501B9
:1000D000950881029501750825651900296581003B
:1000E000C00011241FBECFE5D2E0DEBFCDBF10E0BF
:1000F000A0E6B0E0E6EFF7E002C005900D92A23670
:10010000B107D9F720E0A2E6B0E001C01D92A33A02
:10011000B207E1F70FD36DC373CFCF93C62F2091F2
:10012000770024FF07C03091780028E82327209328
:10013000780003C02AE5209377002C2FFC01A9E763
:10014000B0E081918D9321501216DCF36C2F89E77A
:1001500090E037D1CC5FC0937700CF910895CF93D3
:10016000DF9380918900835087FDB2C09091850014
:100170009D3209F0ABC0883009F0A8C0809186009C
:10018000CCE0D0E0C81BD109C357DF4F83EC80938C
:100190006C008AE5809361001092840088818076EB
:1001A00019F0CE0170D289C09A81109275008981B0
:1001B000811106C01092760025E730E082E079C018
:1001C000853019F490938A0071C0863009F058C0C8
:1001D0008B81813041F480E490E09093880080939B
:1001E000870082E149C0823041F48EE190E0909333
:1001F00088008093870082E23FC0833041F59111EF
:1002000008C08AEB90E0909388008093870084E098
:1002100033C0913041F482E990E09093880080935C
:10022000870088E229C0923041F484E890E09093FE
:100230008800809387008EE01FC09330E1F482E550
:1002400090E0909388008093870082E315C081320C
:1002500041F480E390E0909388008093870089E0E8
:100260000BC0823241F48EEB90E090938800809333
:10027000870083E201C080E090E4909384001DC079
:10028000883069F0893019F490938C000FC08A305F
:1002900049F08B3059F48BE48093780007C02CE848
:1002A00030E002C025E730E081E003C025E730E020
:1002B00080E030938800209387009F81911104C0D3
:1002C0009E81981708F4892F80936000109289000E
:1002D0008091610084FF46C0809160008F3F09F4E7
:1002E00041C0C82F893008F0C8E08C1B80936000A3
:1002F00090916C0088E8892780936C00CC2331F1C1
:1003000040918700509188008091840086FF0AC048
:10031000ADE6B0E0FA019C2F84918D933196915017
:10032000D9F708C0DA01EDE6F0E09C2F8D918193BA
:100330009150E1F72FEF2C0F30E02F5F3F4FCA01B4
:10034000820F931F90938800809387006C2F8DE617
:1003500090E037D0CC5FCC3019F08FEF8093600005
:10036000C093610084E196B3957031F48150D9F760
:1003700010928A0010928300DF91CF91089585B783
:10038000826085BF8BB780648BBFE7E7F0E08BE4CA
:1003900081838AE580830895A82FB92F80E090E0BB
:1003A00041E050EA609530E009C02D918227979591
:1003B000879510F084279527305EC8F36F5FA8F308
:1003C0000895EADF8D939D930895CF93CFB7CF9390
:1003D000C395B09BE9F7B09B0BC0B09B09C0B09B25
:1003E00007C0B09B05C0B09B03C0B09B01C0D5C087
:1003F0000F92DF93C0918600DD27C357DF4F012E98
:10040000B09B03C0DF910F90E6CF2F930F931F9304
:100410004F932FEF4F6F06B300FB20F95F933F938D
:1004200050E03BE065C016B30126502950FDC89549
:1004300056B3012700FB25F92F7306B3B1F05027FF
:10044000102710FB26F906B22230F0F000C016B3D8
:10045000012700FB27F90126502906B22430E8F5D0
:100460004F77206816B30000F6CF50274F7D2062EB
:1004700006B2102F000000C006B300265029102736
:1004800010FB26F906B2E2CF4F7B06B3206400C012
:10049000DACF01265029157006B269F14E7F21602E
:1004A000012F16B328C0002650294D7F06B22260C6
:1004B000102F29C0012650294B7F06B22460012F3E
:1004C0002DC016B301265029477F2860000006B2D0
:1004D0002EC04F7E06B3206130C0422706B3499339
:1004E00000265029102706B24FEF10FB20F9297F74
:1004F00016B379F2157059F10126502906B2012779
:1005000000FB21F9237F06B371F2002650293150F8
:10051000D0F006B2102710FB22F9277E16B351F255
:1005200001265029012700FB06B223F92F7C49F24E
:10053000000006B3102710FB24F90026502906B24C
:100540002F7939F270CF10E41ABF002719C03B5041
:100550003195C31BD04010E41ABF0881033C09F158
:100560000B34F9F0209183001981110F1213EDCF94
:100570004A81441F093651F10D3211F0013E29F72D
:1005800000938B003F915F914F911F910F912F919D
:10059000DF910F90CAB7C6FD1BCFCF91CFBFCF91D0
:1005A000189520918B00222369F310918900112363
:1005B00079F534307AF130938900209385001091D9
:1005C00086003BE0311B3093860024C000918900F7
:1005D0000130F4F40AE54F7049F43091610034FDC4
:1005E0001AC000936100CCE6D0E019C030917700CA
:1005F00034FD11C000937700C8E7D0E010C0052794
:1006000010E000C021C0052710E0C89508BB14C049
:100610003AE501C032ED032EC0E0D0E032E017B37E
:100620001560C09A08B317BB55E020E84FEF20FFD4
:10063000052708BB279517951C3F28F70000455252
:10064000B0F720FF0527279508BB17951C3FB8F684
:1006500029913A9561F70A7F10918A00110F08BB22
:10066000C250D04011F01093830010E41ABF016013
:1006700017B31A7F402F4A7F54E05A95F1F708BB11
:1006800017BB48BB7FCFFC01808180768032D1F4DC
:100690008181813041F486E690E0909388008093D8
:1006A000870082E00895823041F485E690E09093DF
:1006B00088008093870081E008958A3019F483814F
:1006C0008093650080E008951F920F920FB60F92FD
:1006D00011248F939F9386B3807190916400891742
:1006E00091F090916300915018F0909363000EC0C8
:1006F00093E09093630080936400811107C081E0D0
:100700008093620003C083E0809363009F918F9188
:100710000F900FBE0F901F901895BC98C49A089523
:1007200088B78D7F88BF89B7826089BF83B78560AE
:1007300083BF089581E0809364001092630010925B
:100740006200EBDFE199FECF81E090E04AD09CEFC0
:10075000980F983F08F088E2809368001092690033
:100760008FEF80936A0010926B00DADF9EE088E1E1
:100770000FB6F894A89581BD0FBE91BD00DEB89A62
:1007800080E0815041F0A895ECE1F0E13197F1F77C
:1007900000C00000F6CFB8987894A895E0DCF894F3
:1007A00080916200109262007894811110926B0027
:1007B0008091770084FFF1CF80916B00833068F7E0
:1007C00010926600E82FF0E0E859FF4F9081909377
:1007D00067008F5F80936B0062E086E690E09DDCAF
:1007E000DCCFE199FECF9FBB8EBBE09A99278DB3FA
:0607F0000895F894FFCF0C
:0207F600FF5AA8
:00000001FF
