:1000000077C0EAC190C08FC08EC08DC08CC08BC03D
:100010008AC089C088C087C086C085C084C00902E4
:100020002200010100A019090400000103000000E2
:100030000921010100012234000705810308006441
:100040001201100100000008C016DA2700010102A9
:10005000030132037400690063006B0065006C00EB
:1000600074006F006E00400067006D006100690061
:100070006C002E0063006F006D003A00300030000D
:10008000300031000C034D006F00750073006500F7
:1000900028037400690063006B0065006C00740045
:1000A0006F006E00400067006D00610069006C0029
:1000B0002E0063006F006D000403090405010902AE
:1000C000A1010901A1000509190129031500250154
:1000D00095037501810295017505810305010930BC
:1000E000093109381581257F750895038106C0C03F
:1000F00011241FBECFE5D2E0DEBFCDBF10E0A0E6E9
:10010000B0E0E0EEF7E002C005900D92AA36B1072C
:10011000D9F720E0AAE6B0E001C01D92AB3AB207E1
:10012000E1F7D9D25BC36CCFCF93C62F20917F006C
:1001300024FF07C03091800028E823272093800007
:1001400003C02AE520937F002C2FFC01A1E8B0E03A
:1001500081918D9321501216DCF36C2F81E890E091
:1001600037D1CC5FC0937F00CF910895CF93DF93B9
:1001700080919100835087FDB2C090918D009D3297
:1001800009F0ABC0883009F0A8C080918E00CCE0A7
:10019000D0E0C81BD109CB56DF4F83EC80937400AD
:1001A0008AE58093610010928C008881807619F036
:1001B000CE0170D289C09A8110927D00898181110F
:1001C00006C010927E002DE730E082E079C08530D5
:1001D00019F49093920071C0863009F058C08B8159
:1001E000813041F480E490E09093900080938F0000
:1001F00082E149C0823041F48EE190E0909390001A
:1002000080938F0082E23FC0833041F5911108C096
:1002100088EB90E09093900080938F0084E033C04F
:10022000913041F480E990E09093900080938F00AA
:1002300088E229C0923041F484E890E090939000E5
:1002400080938F008CE01FC09330E1F482E590E052
:100250009093900080938F0082E315C0813241F427
:1002600080E390E09093900080938F0089E00BC032
:10027000823241F48CEB90E09093900080938F0059
:1002800084E301C080E090E490938C001DC088302E
:1002900069F0893019F4909394000FC08A3049F0C6
:1002A0008B3059F48BE48093800007C024E930E060
:1002B00002C02DE730E081E003C02DE730E080E0B0
:1002C0003093900020938F009F81911104C09E81F4
:1002D000981708F4892F8093600010929100809104
:1002E000610084FF46C0809160008F3F09F441C0E7
:1002F000C82F893008F0C8E08C1B80936000909173
:10030000740088E8892780937400CC2331F14091F0
:100310008F005091900080918C0086FF0AC0A5E765
:10032000B0E0FA019C2F84918D9331969150D9F7CA
:1003300008C0DA01E5E7F0E09C2F8D9181939150A0
:10034000E1F72FEF2C0F30E02F5F3F4FCA01820FF4
:10035000931F9093900080938F006C2F85E790E01F
:1003600037D0CC5FCC3019F08FEF80936000C09312
:10037000610084E196B3957031F48150D9F7109201
:10038000920010928B00DF91CF91089585B7826023
:1003900085BF8BB780648BBFEFE7F0E08BE4818390
:1003A0008AE580830895A82FB92F80E090E041E08E
:1003B00050EA609530E009C02D9182279795879586
:1003C00010F084279527305EC8F36F5FA8F3089577
:1003D000EADF8D939D930895CF93CFB7CF93C395C5
:1003E000B09BE9F7B09B0BC0B09B09C0B09B07C0A6
:1003F000B09B05C0B09B03C0B09B01C0D5C00F929D
:10040000DF93C0918E00DD27CB56DF4F012EB09BCE
:1004100003C0DF910F90E6CF2F930F931F934F935D
:100420002FEF4F6F06B300FB20F95F933F9350E02F
:100430003BE065C016B30126502950FDC89556B360
:10044000012700FB25F92F7306B3B1F050271027C1
:1004500010FB26F906B22230F0F000C016B30127D7
:1004600000FB27F90126502906B22430E8F54F7722
:10047000206816B30000F6CF50274F7D206206B2E9
:10048000102F000000C006B300265029102710FBD3
:1004900026F906B2E2CF4F7B06B3206400C0DACF64
:1004A00001265029157006B269F14E7F2160012F97
:1004B00016B328C0002650294D7F06B22260102FA7
:1004C00029C0012650294B7F06B22460012F2DC080
:1004D00016B301265029477F2860000006B22EC0BF
:1004E0004F7E06B3206130C0422706B349930026F1
:1004F0005029102706B24FEF10FB20F9297F16B3C1
:1005000079F2157059F10126502906B2012700FB36
:1005100021F9237F06B371F2002650293150D0F023
:1005200006B2102710FB22F9277E16B351F20126DE
:100530005029012700FB06B223F92F7C49F2000065
:1005400006B3102710FB24F90026502906B22F7994
:1005500039F270CF10E41ABF002719C03B50319513
:10056000C31BD04010E41ABF0881033C09F10B34CF
:10057000F9F020918B001981110F1213EDCF4A81F0
:10058000441F093651F10D3211F0013E29F7009355
:1005900093003F915F914F911F910F912F91DF91A8
:1005A0000F90CAB7C6FD1BCFCF91CFBFCF91189583
:1005B00020919300222369F310919100112379F582
:1005C00034307AF13093910020938D0010918E0099
:1005D0003BE0311B30938E0024C00091910001302C
:1005E000F4F40AE54F7049F43091610034FD1AC00B
:1005F00000936100C4E7D0E019C030917F0034FD62
:1006000011C000937F00C0E8D0E010C0052710E0C3
:1006100000C021C0052710E0C89508BB14C03AE50A
:1006200001C032ED032EC0E0D0E032E017B3156018
:10063000C09A08B317BB55E020E84FEF20FF05270D
:1006400008BB279517951C3F28F700004552B0F7C7
:1006500020FF0527279508BB17951C3FB8F6299161
:100660003A9561F70A7F10919200110F08BBC250B2
:10067000D04011F010938B0010E41ABF016017B343
:100680001A7F402F4A7F54E05A95F1F708BB17BBF9
:1006900048BB7FCFFC01808180768032D1F481819C
:1006A000813041F480E790E09093900080938F0038
:1006B00084E00895823041F48FE690E090939000BA
:1006C00080938F0081E008958A3019F483818093AC
:1006D0006F0080E008959EE088E10FB6F894A89539
:1006E00081BD0FBE91BD8BE080BF50DEB89A80E027
:1006F000815041F0A895ECE1F0E13197F1F700C0AD
:100700000000F6CFB8987894C4E0D0E011E0A89546
:100710002DDD80917F0084FF22C080916E008823B0
:10072000F1F080916C0090916D00FC01EE0FFF1FC5
:10073000EE59FF4F20812093710021812093720098
:100740000196BE0124D090936D0080936C00892B9C
:1007500011F410926E0064E080E790E0E5DC08B6EA
:1007600002FED5CF84E088BF80916A0090916B0033
:10077000019690936B0080936A008034984338F21E
:1007800010926B0010926A0010936E00C0CF97FB1E
:10079000072E16F4009406D077FD08D00BD007FC86
:1007A00005D03EF4909581959F4F08957095619581
:1007B0007F4F0895AA1BBB1B51E107C0AA1FBB1F97
:1007C000A617B70710F0A61BB70B881F991F5A95DD
:1007D000A9F780959095BC01CD010895F894FFCFBD
:0A07E000FF5A050000FBFB000005B6
:00000001FF
