:100000006FC0F5C188C087C086C085C084C083C06A
:1000100082C081C080C07FC07EC07DC07CC009021C
:100020002200010100A019090400000103000000E2
:100030000921010100012223000705810308006452
:100040001201100100000008C016DA2700010102A9
:10005000030132037400690063006B0065006C00EB
:1000600074006F006E00400067006D006100690061
:100070006C002E0063006F006D003A00300030000D
:10008000300031000C034D006F00750073006500F7
:1000900028037400690063006B0065006C00740045
:1000A0006F006E00400067006D00610069006C0029
:1000B0002E0063006F006D000403090405010906AA
:1000C000A101050719E029E715002501750195082B
:1000D0008102950175082565190029658100C00018
:1000E00011241FBECFE5D2E0DEBFCDBF10E0A0E6F9
:1000F000B0E0E4EEF9E002C005900D92A436B1073D
:10010000D9F720E0A4E6B0E001C01D92A43BB207FD
:10011000E1F73ED365C474CFCF93C62F20918800FA
:1001200024FF07C03091890028E823272093890005
:1001300003C02AE5209388002C2FFC01AAE8B0E038
:1001400081918D9321501216DCF36C2F8AE890E098
:1001500037D1CC5FC0938800CF910895CF93DF93C0
:1001600080919A00835087FDB2C0909196009D3295
:1001700009F0ABC0883009F0A8C080919700CCE0AE
:10018000D0E0C81BD109C256DF4F83EC80937D00BD
:100190008AE580936100109295008881807619F03D
:1001A000CE0191D289C09A811092860089818111F5
:1001B00006C01092870026E830E082E079C08530E2
:1001C00019F490939B0071C0863009F058C08B8160
:1001D000813041F480E490E09093990080939800FE
:1001E00082E149C0823041F48EE190E09093990021
:1001F0008093980082E23FC0833041F5911108C09E
:1002000088EB90E0909399008093980084E033C04D
:10021000913041F480E990E09093990080939800A8
:1002200088E229C0923041F484E890E090939900EC
:10023000809398008CE01FC09330E1F482E590E059
:10024000909399008093980082E315C0813241F425
:1002500080E390E0909399008093980089E00BC030
:10026000823241F48CEB90E0909399008093980057
:1002700083E201C080E090E4909395001DC0883037
:1002800069F0893019F490939D000FC08A3049F0CD
:100290008B3059F48BE48093890007C02DE930E05E
:1002A00002C026E830E081E003C026E830E080E0CC
:1002B00030939900209398009F81911104C09E81F2
:1002C000981708F4892F8093600010929A0080910B
:1002D000610084FF46C0809160008F3F09F441C0F7
:1002E000C82F893008F0C8E08C1B80936000909183
:1002F0007D0088E8892780937D00CC2331F14091EF
:100300009800509199008091950086FF0AC0AEE751
:10031000B0E0FA019C2F84918D9331969150D9F7DA
:1003200008C0DA01EEE7F0E09C2F8D9181939150A7
:10033000E1F72FEF2C0F30E02F5F3F4FCA01820F04
:10034000931F90939900809398006C2F8EE790E014
:1003500037D0CC5FCC3019F08FEF80936000C09322
:10036000610084E196B3957031F48150D9F7109211
:100370009B0010929400DF91CF91089585B7826021
:1003800085BF8BB780648BBFE8E8F0E08BE48183A6
:100390008AE580830895A82FB92F80E090E041E09E
:1003A00050EA609530E009C02D9182279795879596
:1003B00010F084279527305EC8F36F5FA8F3089587
:1003C000EADF8D939D930895A6E088279927AA9543
:1003D00069F00197E1F3B099FCCFB09BFECF81E0CB
:1003E0009927A6B3019611F0A570D9F70895CF9378
:1003F000CFB7CF93C395B09BE9F7B09B0BC0B09B31
:1004000009C0B09B07C0B09B05C0B09B03C0B09BA8
:1004100001C0D5C00F92DF93C0919700DD27C2566F
:10042000DF4F012EB09B03C0DF910F90E6CF2F93DB
:100430000F931F934F932FEF4F6F06B300FB20F9DD
:100440005F933F9350E03BE065C016B3012650290F
:1004500050FDC89556B3012700FB25F92F7306B34D
:10046000B1F05027102710FB26F906B22230F0F029
:1004700000C016B3012700FB27F90126502906B258
:100480002430E8F54F77206816B30000F6CF5027E8
:100490004F7D206206B2102F000000C006B3002678
:1004A0005029102710FB26F906B2E2CF4F7B06B386
:1004B000206400C0DACF01265029157006B269F118
:1004C0004E7F2160012F16B328C0002650294D7F92
:1004D00006B22260102F29C0012650294B7F06B298
:1004E0002460012F2DC016B301265029477F2860B4
:1004F000000006B22EC04F7E06B3206130C04227F6
:1005000006B3499300265029102706B24FEF10FB7F
:1005100020F9297F16B379F2157059F10126502977
:1005200006B2012700FB21F9237F06B371F20026F2
:1005300050293150D0F006B2102710FB22F9277E47
:1005400016B351F201265029012700FB06B223F908
:100550002F7C49F2000006B3102710FB24F9002677
:10056000502906B22F7939F270CF10E41ABF002754
:1005700019C03B503195C31BD04010E41ABF08810D
:10058000033C09F10B34F9F0209194001981110F0B
:100590001213EDCF4A81441F093651F10D3211F08B
:1005A000013E29F700939C003F915F914F911F916D
:1005B0000F912F91DF910F90CAB7C6FD1BCFCF913E
:1005C000CFBFCF91189520919C00222369F3109101
:1005D0009A00112379F534307AF130939A00209300
:1005E0009600109197003BE0311B3093970024C098
:1005F00000919A000130F4F40AE54F7049F430910B
:10060000610034FD1AC000936100CDE7D0E019C04D
:100610003091880034FD11C000938800C9E8D0E013
:1006200010C0052710E000C021C0052710E0C895C4
:1006300008BB14C03AE501C032ED032EC0E0D0E0A3
:1006400032E017B31560C09A08B317BB55E020E835
:100650004FEF20FF052708BB279517951C3F28F76C
:1006600000004552B0F720FF0527279508BB1795D6
:100670001C3FB8F629913A9561F70A7F10919B00CB
:10068000110F08BBC250D04011F01093940010E439
:100690001ABF016017B31A7F402F4A7F54E05A9562
:1006A000F1F708BB17BB48BB7FCFE0916500F09125
:1006B0006600309711F0808101C080E010927B00CD
:1006C00080937C000895FC018BE790E09093990063
:1006D00080939800808180768032A9F48181813076
:1006E00019F4E3DF82E00895823041F48AE790E074
:1006F000909399008093980081E008958A3019F4CE
:10070000838180937A0080E00895DF92EF92FF92D8
:100710000F931F93CF93DF9308E010E0C0E0D0E881
:10072000DD2EDC0ED1BE50DE7C0184E3E81689E0CC
:10073000F8060CF4CD2DD6950150110989F78FEFED
:100740008C0F81BF0C2F10E00F5F1F4F81B790E01F
:10075000081719078CF038DE8453994097FF03C0BF
:100760009195819591098E159F0514F4C1B77C016F
:1007700081B78F5F81BFEACFC1BF61B780E090E0F2
:10078000DF91CF911F910F91FF90EF90DF901AC1F1
:1007900080E090E00FD18F3F09F081BF87B38A617D
:1007A00087BBC39A84E190E0E2EBF1EF3197F1F778
:1007B00000C000000197C1F7C398C19A84E190E09E
:1007C000E2EBF1EF3197F1F700C000000197C1F7BC
:1007D000C198C49A84E190E0E2EBF1EF3197F1F730
:1007E00000C000000197C1F7C498BC98B89A84E192
:1007F00090E0E2EBF1EF3197F1F700C000000197D4
:10080000C1F7B8989EE088E10FB6F894A89581BD2D
:100810000FBE91BD8BE080BF82E987B987E886B9BA
:10082000ADDD789424E0922E8824839477247A9402
:1008300004E710E038E2632E4AE0E42EF12C57E2A0
:10084000D52E63E0A62E73E9B72EEBE2CE2EA89547
:1008500085DC8091880084FF1CC0809165009091A8
:100860006600892BB1F021DF62E08BE790E054DC79
:10087000E0916500F0916600CF01019690936600CB
:100880008093650081818F3F21F410926600109261
:10089000650008B602FE0EC098BE809164008F5FAE
:1008A0008F3118F48093640005C010926400809228
:1008B0007900369A80917900882349F23699C7CF1A
:1008C0001092790044B155B19A0136952795440F9D
:1008D000551F240F351F70927600109275004091BD
:1008E00062001093660000936500423041F4C092AC
:1008F0007400C0916500D0916600229708C0609294
:100900007400F7CF835E88832297672B51F0C9016B
:10091000B7013CD09B01FE0119828111F3CFD8822F
:10092000F3CFF0936600E0936500423041F043302E
:1009300049F582E08093620082E987B988CF2091EF
:10094000770030917800C9010196909378008093E8
:100950007700DF011197CC923397C901B70116D008
:100960009B015E2F4F2F1182811102C0D08203C0E4
:100970009DE1980F90833297672B79F7509365002C
:1009800040936600A0926200B7B861CFAA1BBB1B60
:1009900051E107C0AA1FBB1FA617B70710F0A61B7F
:1009A000B70B881F991F5A95A9F780959095BC01A0
:1009B000CD010895E199FECF9FBB8EBBE09A9927A8
:1009C0008DB30895262FE199FECF1CBA9FBB8EBB35
:1009D0002DBB0FB6F894E29AE19A0FBE01960895E6
:0409E000F894FFCFB9
:0409E400FF5A0200B4
:00000001FF
