:1000000069C00DC282C081C080C07FC07EC07DC07B
:100010007CC07BC07AC079C078C077C076C0090246
:100020002200010100A019090400000103000000E2
:10003000092101010001221600070581030800645F
:100040001201100100000008C016DF0500010102C6
:10005000030132037400690063006B0065006C00EB
:1000600074006F006E00400067006D006100690061
:100070006C002E0063006F006D003A00300030000D
:10008000300033000E034800490044002D005200A8
:10009000540028037400690063006B0065006C0065
:1000A00074006F006E00400067006D006100690021
:1000B0006C002E0063006F006D000403090406004D
:1000C000FF0901A101150026FF00750895800900B0
:1000D000B20201C011241FBECFE5D2E0DEBFCDBF0A
:1000E00010E0A0E6B0E0E8ECF8E002C005900D9268
:1000F000A637B107D9F720E0A6E7B0E001C01D920E
:10010000A33FB207E1F7B6D3DDC37ACFCF93C62FB3
:100110002091810024FF07C03091820028E8232726
:100120002093820003C02AE5209381002C2FFC013C
:10013000A3E8B0E081918D9321501216DCF36C2F6F
:1001400083E890E068D1CC5FC0938100CF9108959F
:10015000CF93DF9360919300635067FDCDC0809192
:100160009000CCE0D0E0C81BD109C956DF4F809188
:100170008F008D3209F0AFC0683009F0BBC083EC4E
:10018000809376008AE58093610010928E008881CA
:10019000807631F0CE014AD38F3F09F48BC091C0F5
:1001A0009A8110927F008981811106C0109280008F
:1001B0002FE730E082E079C0853019F49093940005
:1001C00071C0863009F058C08B81813041F480E4E1
:1001D00090E0909392008093910082E149C0823038
:1001E00041F48EE190E0909392008093910082E23E
:1001F0003FC0833041F5911108C08AEB90E09093A5
:1002000092008093910084E033C0913041F482E900
:1002100090E0909392008093910088E229C0923000
:1002200041F484E890E090939200809391008EE0F6
:100230001FC09330E1F482E590E0909392008093A8
:10024000910082E315C0813241F480E390E0909305
:1002500092008093910089E00BC0823241F48EEBD2
:1002600090E0909392008093910086E101C080E03D
:1002700090E490938E0025C0883069F0893019F49D
:10028000909396000FC08A3049F08B3059F48BE47C
:100290008093820007C026E930E002C02FE730E0FB
:1002A00081E003C02FE730E080E03093920020939C
:1002B000910007C0988197FD8E8190E890938E0001
:1002C00007C09F81911104C09E81981708F4892F5F
:1002D000809360000FC080918E0087FF0BC0CE011D
:1002E00070D28F3F21F48EE18093610003C08111B1
:1002F00010926000109293008091610084FF55C0BD
:10030000809160008F3F09F450C0C82F893008F0F9
:10031000C8E08C1B809360009091760088E8892764
:1003200080937600CC2309F44BC020918E0027FFE8
:1003300008C06C2F87E790E017D2C82F893078F576
:1003400023C0809191009091920026FF0AC0A7E7F8
:10035000B0E0FC012C2F34913D9331962150D9F718
:1003600008C0DC01E7E7F0E02C2F3D9131932150EC
:10037000E1F72FEF2C0F30E02F5F3F4F820F931FDD
:1003800090939200809391006C2F87E790E043D088
:10039000CC5FCC3041F08FEF8093600004C08FEFD2
:1003A00080936000CEE1C093610084E196B39570C4
:1003B00069F48150D9F71092940010928D0006C014
:1003C00060E087E790E027D0C4E0E5CFDF91CF91F0
:1003D000089585B7826085BF8BB780648BBFE1E8E5
:1003E000F0E08BE481838AE580830895A82FB92FFC
:1003F00080E090E041E050EA609530E009C02D9146
:1004000082279795879510F084279527305EC8F34B
:100410006F5FA8F30895EADF8D939D930895CF93BE
:10042000CFB7CF93C395B09BE9F7B09B0BC0B09B00
:1004300009C0B09B07C0B09B05C0B09B03C0B09B78
:1004400001C0D5C00F92DF93C0919000DD27C9563F
:10045000DF4F012EB09B03C0DF910F90E6CF2F93AB
:100460000F931F934F932FEF4F6F06B300FB20F9AD
:100470005F933F9350E03BE065C016B301265029DF
:1004800050FDC89556B3012700FB25F92F7306B31D
:10049000B1F05027102710FB26F906B22230F0F0F9
:1004A00000C016B3012700FB27F90126502906B228
:1004B0002430E8F54F77206816B30000F6CF5027B8
:1004C0004F7D206206B2102F000000C006B3002648
:1004D0005029102710FB26F906B2E2CF4F7B06B356
:1004E000206400C0DACF01265029157006B269F1E8
:1004F0004E7F2160012F16B328C0002650294D7F62
:1005000006B22260102F29C0012650294B7F06B267
:100510002460012F2DC016B301265029477F286083
:10052000000006B22EC04F7E06B3206130C04227C5
:1005300006B3499300265029102706B24FEF10FB4F
:1005400020F9297F16B379F2157059F10126502947
:1005500006B2012700FB21F9237F06B371F20026C2
:1005600050293150D0F006B2102710FB22F9277E17
:1005700016B351F201265029012700FB06B223F9D8
:100580002F7C49F2000006B3102710FB24F9002647
:10059000502906B22F7939F270CF10E41ABF002724
:1005A00019C03B503195C31BD04010E41ABF0881DD
:1005B000033C09F10B34F9F020918D001981110FE2
:1005C0001213EDCF4A81441F093651F10D3211F05B
:1005D000013E29F7009395003F915F914F911F9144
:1005E0000F912F91DF910F90CAB7C6FD1BCFCF910E
:1005F000CFBFCF91189520919500222369F31091D8
:100600009300112379F534307AF1309393002093DD
:100610008F00109190003BE0311B3093900024C07C
:10062000009193000130F4F40AE54F7049F43091E1
:10063000610034FD1AC000936100C6E7D0E019C024
:100640003091810034FD11C000938100C2E8D0E0F8
:1006500010C0052710E000C021C0052710E0C89594
:1006600008BB14C03AE501C032ED032EC0E0D0E073
:1006700032E017B31560C09A08B317BB55E020E805
:100680004FEF20FF052708BB279517951C3F28F73C
:1006900000004552B0F720FF0527279508BB1795A6
:1006A0001C3FB8F629913A9561F70A7F10919400A2
:1006B000110F08BBC250D04011F010938D0010E410
:1006C0001ABF016017B31A7F402F4A7F54E05A9532
:1006D000F1F708BB17BB48BB7FCF8091CD008330BB
:1006E000B9F443E050E062E670E08DEA90E0DCD0DF
:1006F000892B79F583E0E2E7F0E0A2EDB0E001902C
:100700000D928A95E1F71092F20083E090E018C014
:100710008830F9F448E050E066E670E08DEA90E059
:10072000C3D0892BB1F486E0EFE6F0E0A2EDB0E0B3
:1007300001900D928A95E1F71092F20086E090E028
:100740009093D1008093D0009093CF008093CE00FF
:1007500008951092F2001092D1001092D0001092E1
:10076000CF001092CE0008952091CE003091CF009E
:100770002115310521F1462F50E02417350708F4E3
:10078000622F282FFC018E2F821B8617B0F4A091B8
:10079000F200B0E0AE52BF4F8C9181938091F20095
:1007A0008F5F8093F2008091CE009091CF000197EF
:1007B0009093CF008093CE00E6CF862F089580E0FF
:1007C00008952091D0003091D1002132310550F5AB
:1007D0002091CE003091CF00462F50E024173507EE
:1007E00008F4622F382FFC018091CE009091CF0049
:1007F0002E2F231B261788F42091CD004191A22F84
:10080000B0E0A355BF4F4C932F5F2093CD000197CD
:100810009093CF008093CE00E7CF892B29F45DDF42
:1008200081E008958FEF089580E00895CF93DF93DE
:10083000FC01908190769032C9F481818130A1F0E1
:100840008930A1F4ADEAB0E0ED0119929A95E9F78B
:100850001092CD00868197819093D1008093D00033
:100860009093CF008093CE008FEF01C080E0DF91A6
:10087000CF9108959EE088E10FB6F894A89581BDC8
:100880000FBE91BDA6DDB89A80E0815041F0A895D9
:10089000ECE1F0E13197F1F700C00000F6CFB89835
:1008A0007894A89555DCFDCFFB01DC014150504008
:1008B00030F08D910190801919F40020B9F7881B50
:0808C000990B0895F894FFCF95
:1008C800FF5A666F6F00626C61666173656C0066E3
:0608D8006F6F6261720007
:00000001FF
